{
    "contractName": "Delance",
    "abi": [
        {
            "inputs": [
                {
                    "internalType": "address",
                    "name": "_address",
                    "type": "address"
                },
                {
                    "internalType": "uint256",
                    "name": "_deadline",
                    "type": "uint256"
                }
            ],
            "stateMutability": "payable",
            "type": "constructor"
        },
        {
            "inputs": [
                {
                    "internalType": "string",
                    "name": "_title",
                    "type": "string"
                },
                {
                    "internalType": "uint256",
                    "name": "_amount",
                    "type": "uint256"
                }
            ],
            "name": "createRequest",
            "outputs": [],
            "stateMutability": "nonpayable",
            "type": "function"
        },
        {
            "inputs": [],
            "name": "deadline",
            "outputs": [
                {
                    "internalType": "uint256",
                    "name": "",
                    "type": "uint256"
                }
            ],
            "stateMutability": "view",
            "type": "function"
        },
        {
            "inputs": [],
            "name": "employer",
            "outputs": [
                {
                    "internalType": "address",
                    "name": "",
                    "type": "address"
                }
            ],
            "stateMutability": "view",
            "type": "function"
        },
        {
            "inputs": [],
            "name": "freelancer",
            "outputs": [
                {
                    "internalType": "address",
                    "name": "",
                    "type": "address"
                }
            ],
            "stateMutability": "view",
            "type": "function"
        },
        {
            "inputs": [],
            "name": "getAllRequest",
            "outputs": [
                {
                    "components": [
                        {
                            "internalType": "string",
                            "name": "title",
                            "type": "string"
                        },
                        {
                            "internalType": "uint256",
                            "name": "amount",
                            "type": "uint256"
                        },
                        {
                            "internalType": "bool",
                            "name": "locked",
                            "type": "bool"
                        },
                        {
                            "internalType": "bool",
                            "name": "paid",
                            "type": "bool"
                        }
                    ],
                    "internalType": "struct Delance.Request[]",
                    "name": "",
                    "type": "tuple[]"
                }
            ],
            "stateMutability": "view",
            "type": "function"
        },
        {
            "inputs": [],
            "name": "price",
            "outputs": [
                {
                    "internalType": "uint256",
                    "name": "",
                    "type": "uint256"
                }
            ],
            "stateMutability": "view",
            "type": "function"
        },
        {
            "inputs": [
                {
                    "internalType": "uint256",
                    "name": "",
                    "type": "uint256"
                }
            ],
            "name": "requests",
            "outputs": [
                {
                    "internalType": "string",
                    "name": "title",
                    "type": "string"
                },
                {
                    "internalType": "uint256",
                    "name": "amount",
                    "type": "uint256"
                },
                {
                    "internalType": "bool",
                    "name": "locked",
                    "type": "bool"
                },
                {
                    "internalType": "bool",
                    "name": "paid",
                    "type": "bool"
                }
            ],
            "stateMutability": "view",
            "type": "function"
        },
        {
            "stateMutability": "payable",
            "type": "receive"
        }
    ],
    "bytecode": "60806040526040516108523803806108528339810160408190526100229161005d565b60008054336001600160a01b031991821617909155600180549091166001600160a01b03939093169290921790915560025534600355610097565b6000806040838503121561007057600080fd5b82516001600160a01b038116811461008757600080fd5b6020939093015192949293505050565b6107ac806100a66000396000f3fe6080604052600436106100745760003560e01c8063a035b1fe1161004e578063a035b1fe14610112578063a37dda2c14610128578063aa6e90c014610160578063ae200e791461018257600080fd5b806329dcb0cf14610097578063545569ba146100c057806381d12c58146100e257600080fd5b3661009257346003600082825461008b91906106ff565b9091555050005b600080fd5b3480156100a357600080fd5b506100ad60025481565b6040519081526020015b60405180910390f35b3480156100cc57600080fd5b506100d56101a2565b6040516100b7919061063f565b3480156100ee57600080fd5b506101026100fd3660046105d9565b6102c2565b6040516100b794939291906106ce565b34801561011e57600080fd5b506100ad60035481565b34801561013457600080fd5b50600154610148906001600160a01b031681565b6040516001600160a01b0390911681526020016100b7565b34801561016c57600080fd5b5061018061017b366004610524565b610391565b005b34801561018e57600080fd5b50600054610148906001600160a01b031681565b60606004805480602002602001604051908101604052809291908181526020016000905b828210156102b957838290600052602060002090600302016040518060800160405290816000820180546101f990610725565b80601f016020809104026020016040519081016040528092919081815260200182805461022590610725565b80156102725780601f1061024757610100808354040283529160200191610272565b820191906000526020600020905b81548152906001019060200180831161025557829003601f168201915b505050918352505060018281015460208084019190915260029093015460ff80821615156040850152610100909104161515606090920191909152918352920191016101c6565b50505050905090565b600481815481106102d257600080fd5b90600052602060002090600302016000915090508060000180546102f590610725565b80601f016020809104026020016040519081016040528092919081815260200182805461032190610725565b801561036e5780601f106103435761010080835404028352916020019161036e565b820191906000526020600020905b81548152906001019060200180831161035157829003601f168201915b50505050600183015460029093015491929160ff80821692506101009091041684565b6001546001600160a01b031633146103e15760405162461bcd60e51b815260206004820152600f60248201526e37b7363c90333932b2b630b731b2b960891b604482015260640160405180910390fd5b604080516080810182528381526020808201849052600192820183905260006060830181905260048054948501815590528151805192936003027f8a35acfbc15ff81a39ae7d344fd709f28e8600b4aa8c65c6b64bfe7fe36bd19b019261044b928492019061048b565b506020820151600182015560408201516002909101805460609093015115156101000261ff00199215159290921661ffff19909316929092171790555050565b82805461049790610725565b90600052602060002090601f0160209004810192826104b957600085556104ff565b82601f106104d257805160ff19168380011785556104ff565b828001600101855582156104ff579182015b828111156104ff5782518255916020019190600101906104e4565b5061050b92915061050f565b5090565b5b8082111561050b5760008155600101610510565b6000806040838503121561053757600080fd5b823567ffffffffffffffff8082111561054f57600080fd5b818501915085601f83011261056357600080fd5b81358181111561057557610575610760565b604051601f8201601f19908116603f0116810190838211818310171561059d5761059d610760565b816040528281528860208487010111156105b657600080fd5b826020860160208301376000602093820184015298969091013596505050505050565b6000602082840312156105eb57600080fd5b5035919050565b6000815180845260005b81811015610618576020818501810151868301820152016105fc565b8181111561062a576000602083870101525b50601f01601f19169290920160200192915050565b60006020808301818452808551808352604092508286019150828160051b87010184880160005b838110156106c057603f1989840301855281516080815181865261068c828701826105f2565b838b0151878c01528984015115158a8801526060938401511515939096019290925250509386019390860190600101610666565b509098975050505050505050565b6080815260006106e160808301876105f2565b60208301959095525091151560408301521515606090910152919050565b6000821982111561072057634e487b7160e01b600052601160045260246000fd5b500190565b600181811c9082168061073957607f821691505b6020821081141561075a57634e487b7160e01b600052602260045260246000fd5b50919050565b634e487b7160e01b600052604160045260246000fdfea26469706673582212204940802a22b51a46375e38032812f254a1ec0599a059808fd35b9ae808f9072064736f6c63430008070033",
    "sourcePath": "d:/IBC DApp/payable app/contracts/Delance.sol",
    "compiler": {
        "name": "solc",
        "version": "0.8.7+commit.e28d00a7"
    },
    "functionHashes": {
        "createRequest(string,uint256)": "aa6e90c0",
        "deadline()": "29dcb0cf",
        "employer()": "ae200e79",
        "freelancer()": "a37dda2c",
        "getAllRequest()": "545569ba",
        "price()": "a035b1fe",
        "requests(uint256)": "81d12c58"
    },
    "gasEstimates": {
        "creation": {
            "codeDepositCost": "392800",
            "executionCost": "infinite",
            "totalCost": "infinite"
        },
        "external": {
            "createRequest(string,uint256)": "infinite",
            "deadline()": "2285",
            "employer()": "2403",
            "freelancer()": "2359",
            "getAllRequest()": "infinite",
            "price()": "2284",
            "requests(uint256)": "infinite"
        }
    }
}