{
  "contractName": "Delance",
  "abi": [
    {
      "inputs": [
        {
          "internalType": "address payable",
          "name": "_address",
          "type": "address"
        },
        {
          "internalType": "uint256",
          "name": "_deadline",
          "type": "uint256"
        }
      ],
      "stateMutability": "payable",
      "type": "constructor",
      "payable": true
    },
    {
      "anonymous": false,
      "inputs": [
        {
          "indexed": false,
          "internalType": "string",
          "name": "_title",
          "type": "string"
        },
        {
          "indexed": false,
          "internalType": "uint256",
          "name": "_amount",
          "type": "uint256"
        },
        {
          "indexed": false,
          "internalType": "bool",
          "name": "locked",
          "type": "bool"
        },
        {
          "indexed": false,
          "internalType": "bool",
          "name": "paid",
          "type": "bool"
        }
      ],
      "name": "RequestCreated",
      "type": "event"
    },
    {
      "anonymous": false,
      "inputs": [
        {
          "indexed": false,
          "internalType": "address payable",
          "name": "freelancer",
          "type": "address"
        },
        {
          "indexed": false,
          "internalType": "uint256",
          "name": "amount",
          "type": "uint256"
        }
      ],
      "name": "RequestPaid",
      "type": "event"
    },
    {
      "anonymous": false,
      "inputs": [
        {
          "indexed": false,
          "internalType": "bool",
          "name": "locked",
          "type": "bool"
        }
      ],
      "name": "RequestUnlocked",
      "type": "event"
    },
    {
      "inputs": [],
      "name": "deadline",
      "outputs": [
        {
          "internalType": "uint256",
          "name": "",
          "type": "uint256"
        }
      ],
      "stateMutability": "view",
      "type": "function",
      "constant": true
    },
    {
      "inputs": [],
      "name": "employer",
      "outputs": [
        {
          "internalType": "address payable",
          "name": "",
          "type": "address"
        }
      ],
      "stateMutability": "view",
      "type": "function",
      "constant": true
    },
    {
      "inputs": [],
      "name": "freelancer",
      "outputs": [
        {
          "internalType": "address payable",
          "name": "",
          "type": "address"
        }
      ],
      "stateMutability": "view",
      "type": "function",
      "constant": true
    },
    {
      "inputs": [
        {
          "internalType": "uint256",
          "name": "",
          "type": "uint256"
        }
      ],
      "name": "requests",
      "outputs": [
        {
          "internalType": "string",
          "name": "title",
          "type": "string"
        },
        {
          "internalType": "uint256",
          "name": "amount",
          "type": "uint256"
        },
        {
          "internalType": "bool",
          "name": "locked",
          "type": "bool"
        },
        {
          "internalType": "bool",
          "name": "paid",
          "type": "bool"
        }
      ],
      "stateMutability": "view",
      "type": "function",
      "constant": true
    },
    {
      "stateMutability": "payable",
      "type": "receive",
      "payable": true
    },
    {
      "inputs": [
        {
          "internalType": "string",
          "name": "_title",
          "type": "string"
        },
        {
          "internalType": "uint256",
          "name": "_amount",
          "type": "uint256"
        }
      ],
      "name": "createRequest",
      "outputs": [],
      "stateMutability": "nonpayable",
      "type": "function"
    },
    {
      "inputs": [],
      "name": "getAllRequest",
      "outputs": [
        {
          "components": [
            {
              "internalType": "string",
              "name": "title",
              "type": "string"
            },
            {
              "internalType": "uint256",
              "name": "amount",
              "type": "uint256"
            },
            {
              "internalType": "bool",
              "name": "locked",
              "type": "bool"
            },
            {
              "internalType": "bool",
              "name": "paid",
              "type": "bool"
            }
          ],
          "internalType": "struct Delance.Request[]",
          "name": "",
          "type": "tuple[]"
        }
      ],
      "stateMutability": "view",
      "type": "function",
      "constant": true
    },
    {
      "inputs": [
        {
          "internalType": "uint256",
          "name": "_index",
          "type": "uint256"
        }
      ],
      "name": "unlockRequest",
      "outputs": [],
      "stateMutability": "nonpayable",
      "type": "function"
    },
    {
      "inputs": [
        {
          "internalType": "uint256",
          "name": "_index",
          "type": "uint256"
        }
      ],
      "name": "withdraw",
      "outputs": [],
      "stateMutability": "nonpayable",
      "type": "function"
    }
  ],
  "bytecode": "0x60806040526000600460006101000a81548160ff021916908315150217905550604051620019c1380380620019c1833981810160405281019062000044919062000181565b3373ffffffffffffffffffffffffffffffffffffffff168273ffffffffffffffffffffffffffffffffffffffff161415620000b6576040517f08c379a0000000000000000000000000000000000000000000000000000000008152600401620000ad90620001ef565b60405180910390fd5b336000806101000a81548173ffffffffffffffffffffffffffffffffffffffff021916908373ffffffffffffffffffffffffffffffffffffffff16021790555081600160006101000a81548173ffffffffffffffffffffffffffffffffffffffff021916908373ffffffffffffffffffffffffffffffffffffffff160217905550804262000145919062000222565b60028190555050506200034e565b60008151905062000164816200031a565b92915050565b6000815190506200017b8162000334565b92915050565b600080604083850312156200019b576200019a620002ec565b5b6000620001ab8582860162000153565b9250506020620001be858286016200016a565b9150509250929050565b6000620001d7601c8362000211565b9150620001e482620002f1565b602082019050919050565b600060208201905081810360008301526200020a81620001c8565b9050919050565b600082825260208201905092915050565b60006200022f82620002b3565b91506200023c83620002b3565b9250827fffffffffffffffffffffffffffffffffffffffffffffffffffffffffffffffff03821115620002745762000273620002bd565b5b828201905092915050565b60006200028c8262000293565b9050919050565b600073ffffffffffffffffffffffffffffffffffffffff82169050919050565b6000819050919050565b7f4e487b7100000000000000000000000000000000000000000000000000000000600052601160045260246000fd5b600080fd5b7f656d706c6f7965722063616e6e6f7420686972652068696d73656c6600000000600082015250565b62000325816200027f565b81146200033157600080fd5b50565b6200033f81620002b3565b81146200034b57600080fd5b50565b611663806200035e6000396000f3fe60806040526004361061007f5760003560e01c806381d12c581161004e57806381d12c5814610133578063a37dda2c14610173578063aa6e90c01461019e578063ae200e79146101c757610086565b80631cc198671461008b57806329dcb0cf146100b45780632e1a7d4d146100df578063545569ba1461010857610086565b3661008657005b600080fd5b34801561009757600080fd5b506100b260048036038101906100ad9190610ceb565b6101f2565b005b3480156100c057600080fd5b506100c96103bb565b6040516100d69190611221565b60405180910390f35b3480156100eb57600080fd5b5061010660048036038101906101019190610ceb565b6103c1565b005b34801561011457600080fd5b5061011d610738565b60405161012a9190611078565b60405180910390f35b34801561013f57600080fd5b5061015a60048036038101906101559190610ceb565b610869565b60405161016a94939291906110b5565b60405180910390f35b34801561017f57600080fd5b5061018861094b565b6040516101959190611034565b60405180910390f35b3480156101aa57600080fd5b506101c560048036038101906101c09190610c8f565b610971565b005b3480156101d357600080fd5b506101dc610b43565b6040516101e99190611034565b60405180910390f35b60008054906101000a900473ffffffffffffffffffffffffffffffffffffffff1673ffffffffffffffffffffffffffffffffffffffff163373ffffffffffffffffffffffffffffffffffffffff1614610280576040517f08c379a000000000000000000000000000000000000000000000000000000000815260040161027790611201565b60405180910390fd5b60038054905081108015610295575060008110155b6102d4576040517f08c379a00000000000000000000000000000000000000000000000000000000081526004016102cb90611141565b60405180910390fd5b6000600382815481106102ea576102e961141f565b5b90600052602060002090600302019050600115158160020160009054906101000a900460ff16151514610352576040517f08c379a0000000000000000000000000000000000000000000000000000000008152600401610349906111a1565b60405180910390fd5b60008160020160006101000a81548160ff0219169083151502179055507f6917bd44e44c6202f36553b9769ed68f429767151c48c8015c03d6f15d7e4e458160020160009054906101000a900460ff166040516103af919061109a565b60405180910390a15050565b60025481565b600160009054906101000a900473ffffffffffffffffffffffffffffffffffffffff1673ffffffffffffffffffffffffffffffffffffffff163373ffffffffffffffffffffffffffffffffffffffff1614610451576040517f08c379a000000000000000000000000000000000000000000000000000000000815260040161044890611181565b60405180910390fd5b60038054905081108015610466575060008110155b6104a5576040517f08c379a000000000000000000000000000000000000000000000000000000000815260040161049c90611141565b60405180910390fd5b60001515600460009054906101000a900460ff161515146104fb576040517f08c379a00000000000000000000000000000000000000000000000000000000081526004016104f290611161565b60405180910390fd5b6000600382815481106105115761051061141f565b5b90600052602060002090600302019050600015158160020160009054906101000a900460ff16151514610579576040517f08c379a0000000000000000000000000000000000000000000000000000000008152600401610570906111c1565b60405180910390fd5b600015158160020160019054906101000a900460ff161515146105d1576040517f08c379a00000000000000000000000000000000000000000000000000000000081526004016105c890611101565b60405180910390fd5b6001600460006101000a81548160ff0219169083151502179055506000600160009054906101000a900473ffffffffffffffffffffffffffffffffffffffff1673ffffffffffffffffffffffffffffffffffffffff1682600101546040516106389061101f565b60006040518083038185875af1925050503d8060008114610675576040519150601f19603f3d011682016040523d82523d6000602084013e61067a565b606091505b50509050806106be576040517f08c379a00000000000000000000000000000000000000000000000000000000081526004016106b590611121565b60405180910390fd5b60018260020160016101000a81548160ff0219169083151502179055506000600460006101000a81548160ff0219169083151502179055507f8d3c4c2bd7fcd40b8e44b6e7331c1b5e1fd5cd51c8a6ff8a2051bc8280b1d88c33836001015460405161072b92919061104f565b60405180910390a1505050565b60606003805480602002602001604051908101604052809291908181526020016000905b82821015610860578382906000526020600020906003020160405180608001604052908160008201805461078f9061138d565b80601f01602080910402602001604051908101604052809291908181526020018280546107bb9061138d565b80156108085780601f106107dd57610100808354040283529160200191610808565b820191906000526020600020905b8154815290600101906020018083116107eb57829003601f168201915b50505050508152602001600182015481526020016002820160009054906101000a900460ff161515151581526020016002820160019054906101000a900460ff1615151515815250508152602001906001019061075c565b50505050905090565b6003818154811061087957600080fd5b906000526020600020906003020160009150905080600001805461089c9061138d565b80601f01602080910402602001604051908101604052809291908181526020018280546108c89061138d565b80156109155780601f106108ea57610100808354040283529160200191610915565b820191906000526020600020905b8154815290600101906020018083116108f857829003601f168201915b5050505050908060010154908060020160009054906101000a900460ff16908060020160019054906101000a900460ff16905084565b600160009054906101000a900473ffffffffffffffffffffffffffffffffffffffff1681565b600160009054906101000a900473ffffffffffffffffffffffffffffffffffffffff1673ffffffffffffffffffffffffffffffffffffffff163373ffffffffffffffffffffffffffffffffffffffff1614610a01576040517f08c379a00000000000000000000000000000000000000000000000000000000081526004016109f890611181565b60405180910390fd5b6000811015610a45576040517f08c379a0000000000000000000000000000000000000000000000000000000008152600401610a3c906111e1565b60405180910390fd5b600360405180608001604052808481526020018381526020016001151581526020016000151581525090806001815401808255809150506001900390600052602060002090600302016000909190919091506000820151816000019080519060200190610ab3929190610b67565b506020820151816001015560408201518160020160006101000a81548160ff02191690831515021790555060608201518160020160016101000a81548160ff02191690831515021790555050507f42b4ffa6b26ed6a5ced111f7f6726ffca1ed194bf62f22f151829f2670514b8f828260016000604051610b3794939291906110b5565b60405180910390a15050565b60008054906101000a900473ffffffffffffffffffffffffffffffffffffffff1681565b828054610b739061138d565b90600052602060002090601f016020900481019282610b955760008555610bdc565b82601f10610bae57805160ff1916838001178555610bdc565b82800160010185558215610bdc579182015b82811115610bdb578251825591602001919060010190610bc0565b5b509050610be99190610bed565b5090565b5b80821115610c06576000816000905550600101610bee565b5090565b6000610c1d610c1884611261565b61123c565b905082815260208101848484011115610c3957610c38611482565b5b610c4484828561134b565b509392505050565b600082601f830112610c6157610c6061147d565b5b8135610c71848260208601610c0a565b91505092915050565b600081359050610c8981611616565b92915050565b60008060408385031215610ca657610ca561148c565b5b600083013567ffffffffffffffff811115610cc457610cc3611487565b5b610cd085828601610c4c565b9250506020610ce185828601610c7a565b9150509250929050565b600060208284031215610d0157610d0061148c565b5b6000610d0f84828501610c7a565b91505092915050565b6000610d248383610f9e565b905092915050565b610d3581611303565b82525050565b6000610d46826112a2565b610d5081856112c5565b935083602082028501610d6285611292565b8060005b85811015610d9e5784840389528151610d7f8582610d18565b9450610d8a836112b8565b925060208a01995050600181019050610d66565b50829750879550505050505092915050565b610db981611315565b82525050565b610dc881611315565b82525050565b6000610dd9826112ad565b610de381856112e1565b9350610df381856020860161135a565b610dfc81611491565b840191505092915050565b6000610e12826112ad565b610e1c81856112f2565b9350610e2c81856020860161135a565b610e3581611491565b840191505092915050565b6000610e4d600c836112f2565b9150610e58826114a2565b602082019050919050565b6000610e70600f836112f2565b9150610e7b826114cb565b602082019050919050565b6000610e93600d836112f2565b9150610e9e826114f4565b602082019050919050565b6000610eb6601e836112f2565b9150610ec18261151d565b602082019050919050565b6000610ed9600f836112f2565b9150610ee482611546565b602082019050919050565b6000610efc6010836112f2565b9150610f078261156f565b602082019050919050565b6000610f1f6014836112f2565b9150610f2a82611598565b602082019050919050565b6000610f426014836112f2565b9150610f4d826115c1565b602082019050919050565b6000610f656000836112d6565b9150610f70826115ea565b600082019050919050565b6000610f88600d836112f2565b9150610f93826115ed565b602082019050919050565b60006080830160008301518482036000860152610fbb8282610dce565b9150506020830151610fd06020860182611001565b506040830151610fe36040860182610db0565b506060830151610ff66060860182610db0565b508091505092915050565b61100a81611341565b82525050565b61101981611341565b82525050565b600061102a82610f58565b9150819050919050565b60006020820190506110496000830184610d2c565b92915050565b60006040820190506110646000830185610d2c565b6110716020830184611010565b9392505050565b600060208201905081810360008301526110928184610d3b565b905092915050565b60006020820190506110af6000830184610dbf565b92915050565b600060808201905081810360008301526110cf8187610e07565b90506110de6020830186611010565b6110eb6040830185610dbf565b6110f86060830184610dbf565b95945050505050565b6000602082019050818103600083015261111a81610e40565b9050919050565b6000602082019050818103600083015261113a81610e63565b9050919050565b6000602082019050818103600083015261115a81610e86565b9050919050565b6000602082019050818103600083015261117a81610ea9565b9050919050565b6000602082019050818103600083015261119a81610ecc565b9050919050565b600060208201905081810360008301526111ba81610eef565b9050919050565b600060208201905081810360008301526111da81610f12565b9050919050565b600060208201905081810360008301526111fa81610f35565b9050919050565b6000602082019050818103600083015261121a81610f7b565b9050919050565b60006020820190506112366000830184611010565b92915050565b6000611246611257565b905061125282826113bf565b919050565b6000604051905090565b600067ffffffffffffffff82111561127c5761127b61144e565b5b61128582611491565b9050602081019050919050565b6000819050602082019050919050565b600081519050919050565b600081519050919050565b6000602082019050919050565b600082825260208201905092915050565b600081905092915050565b600082825260208201905092915050565b600082825260208201905092915050565b600061130e82611321565b9050919050565b60008115159050919050565b600073ffffffffffffffffffffffffffffffffffffffff82169050919050565b6000819050919050565b82818337600083830152505050565b60005b8381101561137857808201518184015260208101905061135d565b83811115611387576000848401525b50505050565b600060028204905060018216806113a557607f821691505b602082108114156113b9576113b86113f0565b5b50919050565b6113c882611491565b810181811067ffffffffffffffff821117156113e7576113e661144e565b5b80604052505050565b7f4e487b7100000000000000000000000000000000000000000000000000000000600052602260045260246000fd5b7f4e487b7100000000000000000000000000000000000000000000000000000000600052603260045260246000fd5b7f4e487b7100000000000000000000000000000000000000000000000000000000600052604160045260246000fd5b600080fd5b600080fd5b600080fd5b600080fd5b6000601f19601f8301169050919050565b7f616c726561647920706169640000000000000000000000000000000000000000600082015250565b7f5472616e73666572206661696c65640000000000000000000000000000000000600082015250565b7f496e76616c696420696e64657800000000000000000000000000000000000000600082015250565b7f636f6e7472616374206c6f636b65642f7265656e7472616e742063616c6c0000600082015250565b7f6f6e6c7920667265656c616e6365720000000000000000000000000000000000600082015250565b7f616c726561647920756e6c6f636b656400000000000000000000000000000000600082015250565b7f756e6c6f636b2072657175657374206669727374000000000000000000000000600082015250565b7f616d6f756e742073686f756c64206265203e3d30000000000000000000000000600082015250565b50565b7f6f6e6c7920656d706c6f79657200000000000000000000000000000000000000600082015250565b61161f81611341565b811461162a57600080fd5b5056fea2646970667358221220a8fd1718ae672793ac78238b1269797aaf46bb06452d4b7fc705149a75443f6f64736f6c63430008070033",
  "immutableReferences": {},
  "source": "// SPDX-License-Identifier: MIT\npragma solidity >=0.4.22 <0.9.0;\n// allows to pass arrays, structs, dynamic and nested variables to function and return same from functions\npragma experimental ABIEncoderV2;\n\ncontract Delance {\n  // properties of freelancer-employee contract\n  address payable public employer;\n  address payable public freelancer;\n  uint public deadline; // deadline will start counting from time of uploading the block\n\n  constructor (address payable _address, uint _deadline) payable {\n    require(_address != msg.sender, 'employer cannot hire himself');\n    employer = payable(msg.sender);\n    freelancer = _address;\n    deadline = block.timestamp + _deadline;\n  }\n\n  // this function is used if anyone wants to send ether to the contract.\n  // It could be employer, freelancer, or even you, or me :)\n  receive() external payable {}\n\n  // implementing the freelencer sending request part of the contract.\n  // struct to store payment request of freelancer.\n  struct Request {\n    string title;\n    uint256 amount; // why uint256?? - same as uint, no difference\n    bool locked;  // initialially request will be locked, employer will unlock it and transfer required ehther.\n    bool paid;\n  }\n\n  // creating a modifier - function restrictor so only freelancer call call certain functions\n  // it is useful if you do not want to repeat require statement again and again.\n  modifier onlyFreelancer() {\n    require(msg.sender == freelancer, 'only freelancer');\n    _;\n  }\n  \n  event RequestCreated(string _title, uint256 _amount, bool locked, bool paid);\n  \n  Request[] public requests;\n  \n  function createRequest(string memory _title, uint256 _amount) public onlyFreelancer {\n    require(_amount>=0, 'amount should be >=0');  // should be handled by uint itself\n    requests.push(Request(_title, _amount, true, false));\n    emit RequestCreated(_title, _amount, true, false);\n  }\n  function getAllRequest() public view returns(Request[] memory) {\n    return requests;\n  }\n\n  modifier onlyEmployer(){\n    require(msg.sender == employer, 'only employer');\n    _;\n  }\n\n  // event is same as javascript console.log() function.\n  // It prints the event to the console. Later, you can listen\n  // to these events and use these in UI. Here, you can listen whenever\n  // a request is unlocked and update UI accordingly.\n  event RequestUnlocked(bool locked);\n\n  function unlockRequest(uint _index) public onlyEmployer {\n    require(_index < requests.length && _index>=0, \"Invalid index\");\n    \n    // storage keyboard makes var \"request\" behaves as a pointer\n    Request storage request = requests[_index];\n    require(request.locked == true, 'already unlocked');\n    request.locked = false;\n\n    emit RequestUnlocked(request.locked);\n  }\n\n  // sending money to the freelancer for the request\n  // who is paying here ?? employer, contract or price\n  bool locked = false;\n  event RequestPaid(address payable freelancer, uint amount);\n  \n  function withdraw(uint _index) public onlyFreelancer {\n    require(_index < requests.length && _index>=0, \"Invalid index\");\n    require(locked == false, 'contract locked/reentrant call');\n    \n    Request storage request = requests[_index];\n    require(request.locked == false, 'unlock request first');\n    require(request.paid == false, 'already paid');\n\n    locked = true;\n    (bool success, ) = freelancer.call{value: request.amount}('');\n    \n    require(success, 'Transfer failed');\n    request.paid = true;\n    locked = false;\n    emit RequestPaid(payable(msg.sender), request.amount);\n  }\n\n}\n",
  "sourcePath": "D:\\IBC DApp\\payable app\\contracts\\Delance.sol",
  "compiler": {
    "name": "solc",
    "version": "0.8.7+commit.e28d00a7.Emscripten.clang"
  },
  "schemaVersion": "3.4.3",
  "updatedAt": "2021-09-23T19:00:30.441Z",
  "networkType": "ethereum",
  "devdoc": {
    "kind": "dev",
    "methods": {},
    "version": 1
  },
  "userdoc": {
    "kind": "user",
    "methods": {},
    "version": 1
  }
}