{
  "contractName": "Delance",
  "abi": [
    {
      "inputs": [
        {
          "internalType": "address payable",
          "name": "_address",
          "type": "address"
        },
        {
          "internalType": "uint256",
          "name": "_deadline",
          "type": "uint256"
        }
      ],
      "stateMutability": "payable",
      "type": "constructor",
      "payable": true
    },
    {
      "anonymous": false,
      "inputs": [
        {
          "indexed": false,
          "internalType": "string",
          "name": "_title",
          "type": "string"
        },
        {
          "indexed": false,
          "internalType": "uint256",
          "name": "_amount",
          "type": "uint256"
        },
        {
          "indexed": false,
          "internalType": "bool",
          "name": "locked",
          "type": "bool"
        },
        {
          "indexed": false,
          "internalType": "bool",
          "name": "paid",
          "type": "bool"
        }
      ],
      "name": "RequestCreated",
      "type": "event"
    },
    {
      "anonymous": false,
      "inputs": [
        {
          "indexed": false,
          "internalType": "address payable",
          "name": "freelancer",
          "type": "address"
        },
        {
          "indexed": false,
          "internalType": "uint256",
          "name": "amount",
          "type": "uint256"
        }
      ],
      "name": "RequestPaid",
      "type": "event"
    },
    {
      "anonymous": false,
      "inputs": [
        {
          "indexed": false,
          "internalType": "bool",
          "name": "locked",
          "type": "bool"
        }
      ],
      "name": "RequestUnlocked",
      "type": "event"
    },
    {
      "inputs": [],
      "name": "deadline",
      "outputs": [
        {
          "internalType": "uint256",
          "name": "",
          "type": "uint256"
        }
      ],
      "stateMutability": "view",
      "type": "function",
      "constant": true
    },
    {
      "inputs": [],
      "name": "employer",
      "outputs": [
        {
          "internalType": "address payable",
          "name": "",
          "type": "address"
        }
      ],
      "stateMutability": "view",
      "type": "function",
      "constant": true
    },
    {
      "inputs": [],
      "name": "freelancer",
      "outputs": [
        {
          "internalType": "address payable",
          "name": "",
          "type": "address"
        }
      ],
      "stateMutability": "view",
      "type": "function",
      "constant": true
    },
    {
      "inputs": [],
      "name": "price",
      "outputs": [
        {
          "internalType": "uint256",
          "name": "",
          "type": "uint256"
        }
      ],
      "stateMutability": "view",
      "type": "function",
      "constant": true
    },
    {
      "inputs": [
        {
          "internalType": "uint256",
          "name": "",
          "type": "uint256"
        }
      ],
      "name": "requests",
      "outputs": [
        {
          "internalType": "string",
          "name": "title",
          "type": "string"
        },
        {
          "internalType": "uint256",
          "name": "amount",
          "type": "uint256"
        },
        {
          "internalType": "bool",
          "name": "locked",
          "type": "bool"
        },
        {
          "internalType": "bool",
          "name": "paid",
          "type": "bool"
        }
      ],
      "stateMutability": "view",
      "type": "function",
      "constant": true
    },
    {
      "stateMutability": "payable",
      "type": "receive",
      "payable": true
    },
    {
      "inputs": [
        {
          "internalType": "string",
          "name": "_title",
          "type": "string"
        },
        {
          "internalType": "uint256",
          "name": "_amount",
          "type": "uint256"
        }
      ],
      "name": "createRequest",
      "outputs": [],
      "stateMutability": "nonpayable",
      "type": "function"
    },
    {
      "inputs": [],
      "name": "getAllRequest",
      "outputs": [
        {
          "components": [
            {
              "internalType": "string",
              "name": "title",
              "type": "string"
            },
            {
              "internalType": "uint256",
              "name": "amount",
              "type": "uint256"
            },
            {
              "internalType": "bool",
              "name": "locked",
              "type": "bool"
            },
            {
              "internalType": "bool",
              "name": "paid",
              "type": "bool"
            }
          ],
          "internalType": "struct Delance.Request[]",
          "name": "",
          "type": "tuple[]"
        }
      ],
      "stateMutability": "view",
      "type": "function",
      "constant": true
    },
    {
      "inputs": [
        {
          "internalType": "uint256",
          "name": "index",
          "type": "uint256"
        }
      ],
      "name": "unlockRequest",
      "outputs": [],
      "stateMutability": "nonpayable",
      "type": "function"
    },
    {
      "inputs": [
        {
          "internalType": "uint256",
          "name": "_index",
          "type": "uint256"
        }
      ],
      "name": "withdraw",
      "outputs": [],
      "stateMutability": "nonpayable",
      "type": "function"
    }
  ],
  "bytecode": "0x60806040526000600560006101000a81548160ff021916908315150217905550604051620016ab380380620016ab833981810160405281019062000044919062000102565b336000806101000a81548173ffffffffffffffffffffffffffffffffffffffff021916908373ffffffffffffffffffffffffffffffffffffffff16021790555081600160006101000a81548173ffffffffffffffffffffffffffffffffffffffff021916908373ffffffffffffffffffffffffffffffffffffffff160217905550806002819055505050620001c0565b600081519050620000e5816200018c565b92915050565b600081519050620000fc81620001a6565b92915050565b600080604083850312156200011c576200011b62000187565b5b60006200012c85828601620000d4565b92505060206200013f85828601620000eb565b9150509250929050565b600062000156826200015d565b9050919050565b600073ffffffffffffffffffffffffffffffffffffffff82169050919050565b6000819050919050565b600080fd5b620001978162000149565b8114620001a357600080fd5b50565b620001b1816200017d565b8114620001bd57600080fd5b50565b6114db80620001d06000396000f3fe60806040526004361061008a5760003560e01c806381d12c581161005957806381d12c581461013e578063a035b1fe1461017e578063a37dda2c146101a9578063aa6e90c0146101d4578063ae200e79146101fd57610091565b80631cc198671461009657806329dcb0cf146100bf5780632e1a7d4d146100ea578063545569ba1461011357610091565b3661009157005b600080fd5b3480156100a257600080fd5b506100bd60048036038101906100b89190610c3b565b610228565b005b3480156100cb57600080fd5b506100d461039d565b6040516100e191906110eb565b60405180910390f35b3480156100f657600080fd5b50610111600480360381019061010c9190610c3b565b6103a3565b005b34801561011f57600080fd5b506101286106c6565b6040516101359190610f82565b60405180910390f35b34801561014a57600080fd5b5061016560048036038101906101609190610c3b565b6107f7565b6040516101759493929190610fbf565b60405180910390f35b34801561018a57600080fd5b506101936108d9565b6040516101a091906110eb565b60405180910390f35b3480156101b557600080fd5b506101be6108df565b6040516101cb9190610f3e565b60405180910390f35b3480156101e057600080fd5b506101fb60048036038101906101f69190610bdf565b610905565b005b34801561020957600080fd5b50610212610a93565b60405161021f9190610f3e565b60405180910390f35b60008054906101000a900473ffffffffffffffffffffffffffffffffffffffff1673ffffffffffffffffffffffffffffffffffffffff163373ffffffffffffffffffffffffffffffffffffffff16146102b6576040517f08c379a00000000000000000000000000000000000000000000000000000000081526004016102ad906110cb565b60405180910390fd5b6000600482815481106102cc576102cb6112e9565b5b90600052602060002090600302019050600115158160020160009054906101000a900460ff16151514610334576040517f08c379a000000000000000000000000000000000000000000000000000000000815260040161032b9061108b565b60405180910390fd5b60008160020160006101000a81548160ff0219169083151502179055507f6917bd44e44c6202f36553b9769ed68f429767151c48c8015c03d6f15d7e4e458160020160009054906101000a900460ff166040516103919190610fa4565b60405180910390a15050565b60025481565b600160009054906101000a900473ffffffffffffffffffffffffffffffffffffffff1673ffffffffffffffffffffffffffffffffffffffff163373ffffffffffffffffffffffffffffffffffffffff1614610433576040517f08c379a000000000000000000000000000000000000000000000000000000000815260040161042a9061106b565b60405180910390fd5b60001515600560009054906101000a900460ff16151514610489576040517f08c379a00000000000000000000000000000000000000000000000000000000081526004016104809061104b565b60405180910390fd5b60006004828154811061049f5761049e6112e9565b5b90600052602060002090600302019050600015158160020160009054906101000a900460ff16151514610507576040517f08c379a00000000000000000000000000000000000000000000000000000000081526004016104fe906110ab565b60405180910390fd5b600015158160020160019054906101000a900460ff1615151461055f576040517f08c379a00000000000000000000000000000000000000000000000000000000081526004016105569061100b565b60405180910390fd5b6001600560006101000a81548160ff0219169083151502179055506000600160009054906101000a900473ffffffffffffffffffffffffffffffffffffffff1673ffffffffffffffffffffffffffffffffffffffff1682600101546040516105c690610f29565b60006040518083038185875af1925050503d8060008114610603576040519150601f19603f3d011682016040523d82523d6000602084013e610608565b606091505b505090508061064c576040517f08c379a00000000000000000000000000000000000000000000000000000000081526004016106439061102b565b60405180910390fd5b60018260020160016101000a81548160ff0219169083151502179055506000600560006101000a81548160ff0219169083151502179055507f8d3c4c2bd7fcd40b8e44b6e7331c1b5e1fd5cd51c8a6ff8a2051bc8280b1d88c3383600101546040516106b9929190610f59565b60405180910390a1505050565b60606004805480602002602001604051908101604052809291908181526020016000905b828210156107ee578382906000526020600020906003020160405180608001604052908160008201805461071d90611257565b80601f016020809104026020016040519081016040528092919081815260200182805461074990611257565b80156107965780601f1061076b57610100808354040283529160200191610796565b820191906000526020600020905b81548152906001019060200180831161077957829003601f168201915b50505050508152602001600182015481526020016002820160009054906101000a900460ff161515151581526020016002820160019054906101000a900460ff161515151581525050815260200190600101906106ea565b50505050905090565b6004818154811061080757600080fd5b906000526020600020906003020160009150905080600001805461082a90611257565b80601f016020809104026020016040519081016040528092919081815260200182805461085690611257565b80156108a35780601f10610878576101008083540402835291602001916108a3565b820191906000526020600020905b81548152906001019060200180831161088657829003601f168201915b5050505050908060010154908060020160009054906101000a900460ff16908060020160019054906101000a900460ff16905084565b60035481565b600160009054906101000a900473ffffffffffffffffffffffffffffffffffffffff1681565b600160009054906101000a900473ffffffffffffffffffffffffffffffffffffffff1673ffffffffffffffffffffffffffffffffffffffff163373ffffffffffffffffffffffffffffffffffffffff1614610995576040517f08c379a000000000000000000000000000000000000000000000000000000000815260040161098c9061106b565b60405180910390fd5b600460405180608001604052808481526020018381526020016001151581526020016000151581525090806001815401808255809150506001900390600052602060002090600302016000909190919091506000820151816000019080519060200190610a03929190610ab7565b506020820151816001015560408201518160020160006101000a81548160ff02191690831515021790555060608201518160020160016101000a81548160ff02191690831515021790555050507f42b4ffa6b26ed6a5ced111f7f6726ffca1ed194bf62f22f151829f2670514b8f828260016000604051610a879493929190610fbf565b60405180910390a15050565b60008054906101000a900473ffffffffffffffffffffffffffffffffffffffff1681565b828054610ac390611257565b90600052602060002090601f016020900481019282610ae55760008555610b2c565b82601f10610afe57805160ff1916838001178555610b2c565b82800160010185558215610b2c579182015b82811115610b2b578251825591602001919060010190610b10565b5b509050610b399190610b3d565b5090565b5b80821115610b56576000816000905550600101610b3e565b5090565b6000610b6d610b688461112b565b611106565b905082815260208101848484011115610b8957610b8861134c565b5b610b94848285611215565b509392505050565b600082601f830112610bb157610bb0611347565b5b8135610bc1848260208601610b5a565b91505092915050565b600081359050610bd98161148e565b92915050565b60008060408385031215610bf657610bf5611356565b5b600083013567ffffffffffffffff811115610c1457610c13611351565b5b610c2085828601610b9c565b9250506020610c3185828601610bca565b9150509250929050565b600060208284031215610c5157610c50611356565b5b6000610c5f84828501610bca565b91505092915050565b6000610c748383610ea8565b905092915050565b610c85816111cd565b82525050565b6000610c968261116c565b610ca0818561118f565b935083602082028501610cb28561115c565b8060005b85811015610cee5784840389528151610ccf8582610c68565b9450610cda83611182565b925060208a01995050600181019050610cb6565b50829750879550505050505092915050565b610d09816111df565b82525050565b610d18816111df565b82525050565b6000610d2982611177565b610d3381856111ab565b9350610d43818560208601611224565b610d4c8161135b565b840191505092915050565b6000610d6282611177565b610d6c81856111bc565b9350610d7c818560208601611224565b610d858161135b565b840191505092915050565b6000610d9d600c836111bc565b9150610da88261136c565b602082019050919050565b6000610dc0600f836111bc565b9150610dcb82611395565b602082019050919050565b6000610de3601e836111bc565b9150610dee826113be565b602082019050919050565b6000610e06600f836111bc565b9150610e11826113e7565b602082019050919050565b6000610e296010836111bc565b9150610e3482611410565b602082019050919050565b6000610e4c6014836111bc565b9150610e5782611439565b602082019050919050565b6000610e6f6000836111a0565b9150610e7a82611462565b600082019050919050565b6000610e92600d836111bc565b9150610e9d82611465565b602082019050919050565b60006080830160008301518482036000860152610ec58282610d1e565b9150506020830151610eda6020860182610f0b565b506040830151610eed6040860182610d00565b506060830151610f006060860182610d00565b508091505092915050565b610f148161120b565b82525050565b610f238161120b565b82525050565b6000610f3482610e62565b9150819050919050565b6000602082019050610f536000830184610c7c565b92915050565b6000604082019050610f6e6000830185610c7c565b610f7b6020830184610f1a565b9392505050565b60006020820190508181036000830152610f9c8184610c8b565b905092915050565b6000602082019050610fb96000830184610d0f565b92915050565b60006080820190508181036000830152610fd98187610d57565b9050610fe86020830186610f1a565b610ff56040830185610d0f565b6110026060830184610d0f565b95945050505050565b6000602082019050818103600083015261102481610d90565b9050919050565b6000602082019050818103600083015261104481610db3565b9050919050565b6000602082019050818103600083015261106481610dd6565b9050919050565b6000602082019050818103600083015261108481610df9565b9050919050565b600060208201905081810360008301526110a481610e1c565b9050919050565b600060208201905081810360008301526110c481610e3f565b9050919050565b600060208201905081810360008301526110e481610e85565b9050919050565b60006020820190506111006000830184610f1a565b92915050565b6000611110611121565b905061111c8282611289565b919050565b6000604051905090565b600067ffffffffffffffff82111561114657611145611318565b5b61114f8261135b565b9050602081019050919050565b6000819050602082019050919050565b600081519050919050565b600081519050919050565b6000602082019050919050565b600082825260208201905092915050565b600081905092915050565b600082825260208201905092915050565b600082825260208201905092915050565b60006111d8826111eb565b9050919050565b60008115159050919050565b600073ffffffffffffffffffffffffffffffffffffffff82169050919050565b6000819050919050565b82818337600083830152505050565b60005b83811015611242578082015181840152602081019050611227565b83811115611251576000848401525b50505050565b6000600282049050600182168061126f57607f821691505b60208210811415611283576112826112ba565b5b50919050565b6112928261135b565b810181811067ffffffffffffffff821117156112b1576112b0611318565b5b80604052505050565b7f4e487b7100000000000000000000000000000000000000000000000000000000600052602260045260246000fd5b7f4e487b7100000000000000000000000000000000000000000000000000000000600052603260045260246000fd5b7f4e487b7100000000000000000000000000000000000000000000000000000000600052604160045260246000fd5b600080fd5b600080fd5b600080fd5b600080fd5b6000601f19601f8301169050919050565b7f616c726561647920706169640000000000000000000000000000000000000000600082015250565b7f5472616e73666572206661696c65640000000000000000000000000000000000600082015250565b7f636f6e7472616374206c6f636b65642f7265656e7472616e742063616c6c0000600082015250565b7f6f6e6c7920667265656c616e6365720000000000000000000000000000000000600082015250565b7f616c726561647920756e6c6f636b656400000000000000000000000000000000600082015250565b7f756e6c6f636b2072657175657374206669727374000000000000000000000000600082015250565b50565b7f6f6e6c7920656d706c6f79657200000000000000000000000000000000000000600082015250565b6114978161120b565b81146114a257600080fd5b5056fea2646970667358221220f0d2e339b8e84f726f04a96d34832a5a7a9694378f8047a0af08e49f833b6d3a64736f6c63430008070033",
  "immutableReferences": {},
  "source": "// SPDX-License-Identifier: MIT\npragma solidity >=0.4.22 <0.9.0;\n// allows to pass arrays, structs, dynamic and nested variables to function and return same from functions\npragma experimental ABIEncoderV2;\n\ncontract Delance {\n  // properties of freelancer-employee contract\n  address payable public employer;\n  address payable public freelancer;\n  uint public deadline; // time in solidity is measured using epoch seconds\n  uint public price;\n\n  constructor (address payable _address, uint _deadline) payable {\n    employer = payable(msg.sender);\n    freelancer = _address;\n    deadline = _deadline;\n  }\n\n  // this function is used if anyone wants to send ether to the contract.\n  // It could be employer, freelancer, or even you, or me :)\n  receive() external payable {}\n\n  // implementing the freelencer sending request part of the contract.\n  // struct to store payment request of freelancer.\n  struct Request {\n    string title;\n    uint256 amount; // why uint256??\n    bool locked;  // initialially request will be locked, employer will unlock it and transfer required ehther.\n    bool paid;\n  }\n\n  // creating a modifier - function restrictor so only freelancer call call certain functions\n  // it is useful if you do not want to repeat require statement again and again.\n  modifier onlyFreelancer() {\n    require(msg.sender == freelancer, 'only freelancer');\n    _;\n  }\n  event RequestCreated(string _title, uint256 _amount, bool locked, bool paid);\n\n  Request[] public requests;\n  function createRequest(string memory _title, uint256 _amount) public onlyFreelancer {\n    requests.push(Request(_title, _amount, true, false));\n    emit RequestCreated(_title, _amount, true, false);\n  }\n  function getAllRequest() public view returns(Request[] memory) {\n    return requests;\n  }\n\n  modifier onlyEmployer(){\n    require(msg.sender == employer, 'only employer');\n    _;\n  }\n\n  // event is same as javascript console.log() function.\n  // It prints the event to the console. Later, you can listen\n  // to these events and use these in UI. Here, you can listen whenever\n  // a request is unlocked and update UI accordingly.\n  event RequestUnlocked(bool locked);\n\n  function unlockRequest(uint index) public onlyEmployer {\n    // storage keyboard makes var \"request\" behaves as a pointer\n    Request storage request = requests[index];\n    require(request.locked == true, 'already unlocked');\n    request.locked = false;\n\n    emit RequestUnlocked(request.locked);\n  }\n\n  // sending money to the freelancer for the request\n  // who is paying here ?? employer, contract or price\n  bool locked = false;\n  event RequestPaid(address payable freelancer, uint amount);\n  \n  function withdraw(uint _index) public onlyFreelancer {\n    require(locked == false, 'contract locked/reentrant call');\n    \n    Request storage request = requests[_index];\n    require(request.locked == false, 'unlock request first');\n    require(request.paid == false, 'already paid');\n\n    locked = true;\n    (bool success, ) = freelancer.call{value: request.amount}('');\n    \n    require(success, 'Transfer failed');\n    request.paid = true;\n    locked = false;\n    emit RequestPaid(payable(msg.sender), request.amount);\n  }\n\n}\n",
  "sourcePath": "D:\\IBC DApp\\payable app\\contracts\\Delance.sol",
  "compiler": {
    "name": "solc",
    "version": "0.8.7+commit.e28d00a7.Emscripten.clang"
  },
  "schemaVersion": "3.4.3",
  "updatedAt": "2021-09-23T11:08:32.196Z",
  "networkType": "ethereum",
  "devdoc": {
    "kind": "dev",
    "methods": {},
    "version": 1
  },
  "userdoc": {
    "kind": "user",
    "methods": {},
    "version": 1
  }
}